{
  "contractName": "Entrance",
  "abi": [
    {
      "constant": true,
      "inputs": [
        {
          "name": "",
          "type": "address"
        }
      ],
      "name": "balances",
      "outputs": [
        {
          "name": "",
          "type": "uint256"
        }
      ],
      "payable": false,
      "stateMutability": "view",
      "type": "function"
    },
    {
      "constant": true,
      "inputs": [
        {
          "name": "",
          "type": "address"
        }
      ],
      "name": "has_played",
      "outputs": [
        {
          "name": "",
          "type": "bool"
        }
      ],
      "payable": false,
      "stateMutability": "view",
      "type": "function"
    },
    {
      "inputs": [
        {
          "name": "_pin",
          "type": "uint256"
        }
      ],
      "payable": false,
      "stateMutability": "nonpayable",
      "type": "constructor"
    },
    {
      "anonymous": false,
      "inputs": [
        {
          "indexed": false,
          "name": "server",
          "type": "string"
        },
        {
          "indexed": false,
          "name": "port",
          "type": "string"
        }
      ],
      "name": "EntranceFlag",
      "type": "event"
    },
    {
      "constant": false,
      "inputs": [
        {
          "name": "_pin",
          "type": "uint256"
        }
      ],
      "name": "enter",
      "outputs": [],
      "payable": false,
      "stateMutability": "nonpayable",
      "type": "function"
    },
    {
      "constant": true,
      "inputs": [
        {
          "name": "_who",
          "type": "address"
        }
      ],
      "name": "balanceOf",
      "outputs": [
        {
          "name": "balance",
          "type": "uint256"
        }
      ],
      "payable": false,
      "stateMutability": "view",
      "type": "function"
    },
    {
      "constant": false,
      "inputs": [],
      "name": "gamble",
      "outputs": [],
      "payable": false,
      "stateMutability": "nonpayable",
      "type": "function"
    },
    {
      "constant": false,
      "inputs": [
        {
          "name": "_server",
          "type": "string"
        },
        {
          "name": "_port",
          "type": "string"
        }
      ],
      "name": "getFlag",
      "outputs": [],
      "payable": false,
      "stateMutability": "nonpayable",
      "type": "function"
    }
  ],
  "bytecode": "0x608060405234801561001057600080fd5b50604051602080610a71833981018060405281019080805190602001909291905050508060028190555050610a278061004a6000396000f300608060405260043610610078576000357c0100000000000000000000000000000000000000000000000000000000900463ffffffff16806327e235e31461007d57806370a08231146100d457806386da69f01461012b578063a59f3e0c14610142578063aeb195a71461016f578063c19d1c25146101ca575b600080fd5b34801561008957600080fd5b506100be600480360381019080803573ffffffffffffffffffffffffffffffffffffffff169060200190929190505050610279565b6040518082815260200191505060405180910390f35b3480156100e057600080fd5b50610115600480360381019080803573ffffffffffffffffffffffffffffffffffffffff169060200190929190505050610291565b6040518082815260200191505060405180910390f35b34801561013757600080fd5b506101406102d9565b005b34801561014e57600080fd5b5061016d60048036038101908080359060200190929190505050610697565b005b34801561017b57600080fd5b506101b0600480360381019080803573ffffffffffffffffffffffffffffffffffffffff1690602001909291905050506107b1565b604051808215151515815260200191505060405180910390f35b3480156101d657600080fd5b50610277600480360381019080803590602001908201803590602001908080601f0160208091040260200160405190810160405280939291908181526020018383808284378201915050505050509192919290803590602001908201803590602001908080601f01602080910402602001604051908101604052809392919081815260200183838082843782019150505050505091929192905050506107d1565b005b60006020528060005260406000206000915090505481565b60008060008373ffffffffffffffffffffffffffffffffffffffff1673ffffffffffffffffffffffffffffffffffffffff168152602001908152602001600020549050919050565b60001515600160003373ffffffffffffffffffffffffffffffffffffffff1673ffffffffffffffffffffffffffffffffffffffff16815260200190815260200160002060009054906101000a900460ff1615151415156103a1576040517f08c379a00000000000000000000000000000000000000000000000000000000081526004018080602001828103825260058152602001807f68656c6c6f00000000000000000000000000000000000000000000000000000081525060200191505060405180910390fd5b600a6000803373ffffffffffffffffffffffffffffffffffffffff1673ffffffffffffffffffffffffffffffffffffffff1681526020019081526020016000205410151515610458576040517f08c379a00000000000000000000000000000000000000000000000000000000081526004018080602001828103825260068152602001807f67616d626c65000000000000000000000000000000000000000000000000000081525060200191505060405180910390fd5b600061046e60074361099490919063ffffffff16565b1415610600576104c6600a6000803373ffffffffffffffffffffffffffffffffffffffff1673ffffffffffffffffffffffffffffffffffffffff168152602001908152602001600020546109b990919063ffffffff16565b6000803373ffffffffffffffffffffffffffffffffffffffff1673ffffffffffffffffffffffffffffffffffffffff168152602001908152602001600020819055506000803373ffffffffffffffffffffffffffffffffffffffff1673ffffffffffffffffffffffffffffffffffffffff168152602001908152602001600020546003819055503373ffffffffffffffffffffffffffffffffffffffff1660405180807f596f7520776f6e2100000000000000000000000000000000000000000000000081525060200190506000604051808303816000865af19150505060018060003373ffffffffffffffffffffffffffffffffffffffff1673ffffffffffffffffffffffffffffffffffffffff16815260200190815260200160002060006101000a81548160ff021916908315150217905550610695565b610652600a6000803373ffffffffffffffffffffffffffffffffffffffff1673ffffffffffffffffffffffffffffffffffffffff168152602001908152602001600020546109da90919063ffffffff16565b6000803373ffffffffffffffffffffffffffffffffffffffff1673ffffffffffffffffffffffffffffffffffffffff168152602001908152602001600020819055505b565b8060025481141515610711576040517f08c379a00000000000000000000000000000000000000000000000000000000081526004018080602001828103825260038152602001807f627965000000000000000000000000000000000000000000000000000000000081525060200191505060405180910390fd5b600a6000803373ffffffffffffffffffffffffffffffffffffffff1673ffffffffffffffffffffffffffffffffffffffff168152602001908152602001600020819055506000600160003373ffffffffffffffffffffffffffffffffffffffff1673ffffffffffffffffffffffffffffffffffffffff16815260200190815260200160002060006101000a81548160ff0219169083151502179055505050565b60016020528060005260406000206000915054906101000a900460ff1681565b601e6000803373ffffffffffffffffffffffffffffffffffffffff1673ffffffffffffffffffffffffffffffffffffffff16815260200190815260200160002054111515610887576040517f08c379a00000000000000000000000000000000000000000000000000000000081526004018080602001828103825260048152602001807f666c61670000000000000000000000000000000000000000000000000000000081525060200191505060405180910390fd5b7f31f9f688587d79c168d76bc74a671922d95848f11342b5896712138d1fb575548282604051808060200180602001838103835285818151815260200191508051906020019080838360005b838110156108ee5780820151818401526020810190506108d3565b50505050905090810190601f16801561091b5780820380516001836020036101000a031916815260200191505b50838103825284818151815260200191508051906020019080838360005b83811015610954578082015181840152602081019050610939565b50505050905090810190601f1680156109815780820380516001836020036101000a031916815260200191505b5094505050505060405180910390a15050565b60008082141515156109a557600080fd5b81838115156109b057fe5b06905092915050565b60008082840190508381101515156109d057600080fd5b8091505092915050565b6000808383111515156109ec57600080fd5b828403905080915050929150505600a165627a7a72305820eafc04aeeeff767e8aa3dbbc467f6e41977231cb23a0da5fb9d6ac200b3df2530029",
  "source": "pragma solidity >=0.4.21 <0.6.0;\n\nimport \"./SafeMath.sol\";\n\ncontract Entrance {\n  using SafeMath for *;\n  mapping(address => uint256) public balances;\n  mapping(address => bool) public has_played;\n  uint256 pin;\n  uint256 balance;\n\n  event EntranceFlag(string server, string port);\n\n  modifier legit(uint256 _pin) {\n    require(_pin == pin, \"bye\");\n    _;\n  }\n\n  modifier onlyNewPlayer {\n    require(has_played[msg.sender] == false, \"hello\");\n    _;\n  }\n\n  constructor(uint256 _pin) public {\n    pin = _pin;\n  }\n\n  function enter(uint256 _pin) public legit(_pin) {\n    balances[msg.sender] = 10;\n    has_played[msg.sender] = false;\n  }\n\n  function balanceOf(address _who) public view returns (uint256 balance) {\n    return balances[_who];\n  }\n\n  function gamble() public onlyNewPlayer {\n    require (balances[msg.sender] >= 10, \"gamble\");\n    if ((block.number).mod(7) == 0) {\n      balances[msg.sender] = balances[msg.sender].add(10);\n      balance = balances[msg.sender];\n      // Tell the sender he won!\n      msg.sender.call(\"You won!\");\n      has_played[msg.sender] = true;\n    } else {\n      balances[msg.sender] = balances[msg.sender].sub(10);\n    }\n  }\n\n  function getFlag(string memory _server, string memory _port) public {\n    require (balances[msg.sender] > 30, \"flag\");\n    emit EntranceFlag(_server, _port);\n  }\n}\n",
  "sourcePath": "/Users/linkeex/Projects/ccc/solidity/contracts/entrance.sol",
  "compiler": {
    "name": "solc",
    "version": "0.4.24+commit.e67f0147.Emscripten.clang"
  },
  "schemaVersion": "2.0.1",
  "updatedAt": "2018-12-30T02:10:38.248Z"
}